:10016B001201EA12010A8F1DE51D64017023051FA0
:10017B00531F03E51F7002F51CE51FB40103751C2B
:10018B0032E51FB40203751C4BE51FB40303751C4A
:0D019B0064E51FFD7C007F0112009A80C604
:03000B000201A847
:1001A800C0E0C0F0C0D0758AA4758CFF051EE51E9E
:1001B80075F0648485F01EE51EC3951C5004D2902A
:0B01C8008002C290D0D0D0F0D0E03216
:1001D3001408003F0006005B004F0066006D007DC1
:0601E3000007007F006F21
:10009A00EF14B4080050549000AF75F003A4C58360
:1000AA0025F0C583730200C70200CB0200CF02000D
:1000BA00D30200D70200DF0200E70200EFD2A480D9
:1000CA000ED2A48012D2A48016D2A4801AC2A4D2BC
:1000DA00A3D2A28016C2A4D2A3C2A2800EC2A4C274
:1000EA00A3D2A28006C2A4C2A3C2A2ED25E024081C
:1000FA00F808E6F5807F017E00120201E4F580220D
:1001EA005389F0438901758AA4758CFFC28DD28C1C
:0701FA00D2A9D2AFC2B92265
:10020100EF1FAC0670011E4C600A7D027CEFDCFE24
:04021100DDFC80ECA4
:0102150022C6
:10010A00E4F52020B1137F14FE12020130B1FD7F05
:10011A00147E0012020175200120B0147F147E00A3
:10012A0012020130B0FD7F147E0012020175200216
:10013A0020B2147F147E0012020130B2FD7F147EB9
:10014A000012020175200320B3147F147E001202EC
:10015A000130B3FD7F147E00120201752004AF2026
:01016A002272
:0300000002000EED
:0C000E00787FE4F6D8FD758120020055D3
:10001A0002016BE493A3F8E493A34003F68001F290
:10002A0008DFF48029E493A3F85407240CC8C333E7
:10003A00C4540F4420C8834004F456800146F6DFB6
:10004A00E4800B01020408102040809001D3E47E72
:10005A00019360BCA3FF543F30E509541FFEE493AB
:10006A00A360010ECF54C025E060A840B8E493A372
:10007A00FAE493A3F8E493A3C8C582C8CAC583CA9D
:10008A00F0A3C8C582C8CAC583CADFE9DEE780BE55
:0101E9000015
:00000001FF
