:10048B0050617373776F72643D3D3E004F4B20009C
:04049B004552520074
:10018C0012049F7BFF7A04798B7D017F011204029C
:10019C001200038F1CE51C60F7D3940A5041C3E591
:1001AC00199404E51894005028AE1AAF1B7C007DFE
:1001BC000A1202BD8E1A8F1BE51C75F00A84E5F03D
:1001CC00251BF51BE4351AF51A0519E519700205FE
:1001DC0018750C04AB1BAA1A7D017F02120443E5AF
:1001EC001C640B7036E51BB40A0DE51AB41A087BB7
:1001FC00FF7A04799780067BFF7A04799B7D0E7FCA
:10020C0001120402E4F51AF51BF518F519750C0426
:10021C00AB1BAA1A7D017F02120443E51CB40C1718
:10022C00E4F51AF51BF518F519750C04AB1BAA1A95
:10023C007D017F02120443E51C640D600302019CE6
:10024C00D3E5199400E5189400500302019CD3E502
:10025C00199404E5189400400302019CAE1AAF1BDC
:10026C007C007D0A1202CF8E1A8F1BE519151970AE
:10027C00021518750C04AB1BAA1A7D017F0212041F
:04028C004302019C8C
:10047600EF1FAC0670011E4C600A7D027CEFDCFEAD
:04048600DDFC80EC2D
:01048A00224F
:0604B300C2A58F80D2A754
:0804B9007F027EEFDEFEDFFC96
:0104C1002218
:0A04CE00C2A61204B3C2A70204B9CB
:10042500CFCDCFCECCCE1202CF7C007D0A1202CF2B
:04043500ED2430FF83
:0A043900D2A61204B3C2A70204B950
:10046000AE07BE0104ED148006BE0209ED243F4430
:0604700080FF1204CE2201
:10049F007F381204CE7F0C1204CE7F061204CE7F5B
:0404AF00010204CE74
:0A04D800AC03120460AF0402043903
:060402008B088A09890A3B
:10040800120460E4FDAB08AA09A90A8D827583006D
:0C041800120290FF60061204390D80E90A
:0104240022B5
:0C03CF007F0AEA24FFFDE434FFFC7E00FE
:0803DB008E0D8F0E8C0F8D10AA
:1003E3007F017E00E4FBEBC39510E50F6480F87496
:0E03F3008098500AAC0DAD0E1202BD0B80E8D2
:0104010022D8
:040443008A0A8B0B8B
:10044700120460AA0CEAD39400400D1203CFAC0A41
:08045700AD0B1204251A80ED23
:01045F00227A
:10032400120460C3EA64809480400B7F2B1204396A
:100334008A168B17800E7F2D120439C3E49BF517A0
:10034400E49AF516AA15EAD39400400D1203CFAC33
:0903540016AD171204251A80ED04
:01035D00227D
:04035E008A1F8B2047
:10036200120460AA21EAD3940040297F101203D11B
:10037200AC1FAD20CFCDCFCECCCE1202CFEF540FDB
:10038200FEC3940AEE5004243080022437FF120484
:04039200391A80D1C3
:010396002244
:040397008A248B2504
:10039B00120460AA26EAD394004028EA24FFFDE465
:1003AB0034FFFC7F027E001203DBAC24AD25CFCDE6
:1003BB00CFCECCCE1202CFEF54012430FF12043932
:0303CB001A80D2C3
:0103CE00220C
:10000300E4F5087590FFC2932097137F14FE120442
:10001300763097FD7F147E001204767508012096D2
:10002300147F147E001204763096FD7F147E001236
:1000330004767508052095147F147E00120476302B
:1000430095FD7F147E001204767508092094147FB1
:10005300147E001204763094FD7F147E0012047621
:1000630075080D7590FFC2922097147F147E0012BD
:1000730004763097FD7F147E001204767508022003
:1000830096147F147E001204763096FD7F147E0052
:100093001204767508062095147F147E00120476E8
:1000A3003095FD7F147E0012047675080A2094149F
:1000B3007F147E001204763094FD7F147E001204B8
:1000C3007675080E7590FFC2912097147F147E00F9
:1000D3001204763097FD7F147E00120476750803B0
:1000E3002096147F147E001204763096FD7F147ED2
:1000F300001204767508072095147F147E001204FD
:10010300763095FD7F147E0012047675080B2094DB
:10011300147F147E001204763094FD7F147E001247
:10012300047675080F7590FFC2902097147F147E94
:10013300001204763097FD7F147E00120476750852
:10014300042096147F147E001204763096FD7F14EB
:100153007E001204767508082095147F147E001221
:1001630004763095FD7F147E0012047675080C200A
:1001730094147F147E001204763094FD7F147E0065
:08018300120476750810AF08A4
:01018B002251
:030000000204C235
:0C04C200787FE4F6D8FD75812602018CDD
:10029000BB010CE58229F582E5833AF583E0225023
:1002A00006E92582F8E622BBFE06E92582F8E2226D
:0D02B000E58229F582E5833AF583E4932287
:1002BD00EF8DF0A4A8F0CF8CF0A428CE8DF0A42E55
:0202CD00FE220F
:1002CF00BC000BBE0029EF8DF084FFADF022E4CC13
:1002DF00F875F008EF2FFFEE33FEEC33FCEE9DECDC
:1002EF00984005FCEE9DFE0FD5F0E9E4CEFD22ED22
:1002FF00F8F5F0EE8420D21CFEADF075F008EF2F6C
:10030F00FFED33FD4007985006D5F0F222C398FD5C
:05031F000FD5F0EA22F9
:00000001FF
