:0D045C004D61747269784B65793D3D3E003D
:100388001204397BFF7A04795C7D017F011203B086
:100398001200038F22E52260F7FB7A00750C027DBC
:0803A800017F021202AA80E8A5
:10042400EF1FAC0670011E4C600A7D027CEFDCFEFF
:04043400DDFC80EC7F
:0104380022A1
:06044D00C2A58F80D2A7BA
:080453007F027EEFDEFEDFFCFC
:01045B00227E
:0A046900C2A612044DC2A7020453FC
:1003D300CFCDCFCECCCE1201C97C007D0A1201C98C
:0403E300ED2430FFD6
:0A03E700D2A612044DC2A70204536F
:10040E00AE07BE0104ED148006BE0209ED243F4482
:06041E0080FF12046922B8
:100439007F381204697F0C1204697F061204697FF0
:04044900010204693F
:0A047300AC0312040EAF040203E70D
:0603B0008B088A09890A8E
:1003B60012040EE4FDAB08AA09A90A8D8275830012
:0C03C60012018AFF60061203E70D80E9B7
:0103D2002208
:0C0355007F0AEA24FFFDE434FFFC7E0078
:080361008E0F8F108C118D121C
:100369007F017E00E4FBEBC39512E5116480F8740C
:0E0379008098500AAC0FAD101201B70B80E84F
:010387002253
:0403F1008A158B16C8
:1003F50012040EAA17EAD39400400D120355AC154A
:08040500AD161203D31A80EDBD
:01040D0022CC
:1002AA0012040EC3EA64809480400B7F2B1203E78A
:1002BA008A0D8B0E800E7F2D1203E7C3E49BF50E89
:1002CA00E49AF50DAA0CEAD39400400D120355AC3A
:0902DA000DAD0E1203D31A80EDE4
:0102E30022F8
:0402E4008A1A8B1BCC
:1002E80012040EAA1CEAD3940040297F1012035767
:1002F800AC1AAD1BCFCDCFCECCCE1201C9EF540F67
:10030800FEC3940AEE5004243080022437FF1203FF
:04031800E71A80D18F
:01031C0022BE
:04031D008A1F8B2088
:1003210012040EAA21EAD394004028EA24FFFDE436
:1003310034FFFC7F027E00120361AC1FAD20CFCDE4
:10034100CFCECCCE1201C9EF54012430FF1203E706
:030351001A80D23D
:010354002286
:03047D0001230058
:100003007590FFC2932097147F147E00120424304E
:1000130097FD7F147E001204247523012096147F1C
:10002300147E001204243096FD7F147E00120424F3
:100033007523052095147F147E001204243095FD4A
:100043007F147E001204247523092094147F147EE8
:10005300001204243094FD7F147E001204247523BF
:100063000D7590FFC2922097147F147E0012042412
:100073003097FD7F147E001204247523022096140A
:100083007F147E001204243096FD7F147E00120438
:10009300247523062095147F147E001204243095C2
:1000A300FD7F147E0012042475230A2094147F1408
:1000B3007E001204243094FD7F147E001204247504
:1000C300230E7590FFC2912097147F147E001204B3
:1000D300243097FD7F147E00120424752303209699
:1000E300147F147E001204243096FD7F147E0012C8
:1000F30004247523072095147F147E0012042430F2
:1001030095FD7F147E0012042475230B2094147F25
:10011300147E001204243094FD7F147E0012042404
:1001230075230F7590FFC2902097147F147E0012E1
:1001330004243097FD7F147E0012042475230420C9
:1001430096147F147E001204243096FD7F147E00E3
:100153001204247523082095147F147E00120424AE
:100163003095FD7F147E0012042475230C20941413
:100173007F147E001204243094FD7F147E00120449
:0701830024752310AF2322B5
:0300000002021EDB
:0C021E00787FE4F6D8FD758123020265AC
:10018A00BB010CE58229F582E5833AF583E022502A
:10019A0006E92582F8E622BBFE06E92582F8E22274
:0D01AA00E58229F582E5833AF583E493228E
:1001B700EF8DF0A4A8F0CF8CF0A428CE8DF0A42E5C
:0201C700FE2216
:1001C900BC000BBE0029EF8DF084FFADF022E4CC1A
:1001D900F875F008EF2FFFEE33FEEC33FCEE9DECE3
:1001E900984005FCEE9DFE0FD5F0E9E4CEFD22ED29
:1001F900F8F5F0EE8420D21CFEADF075F008EF2F73
:10020900FFED33FD4007985006D5F0F222C398FD63
:050219000FD5F0EA2200
:10022A00020388E493A3F8E493A34003F68001F25F
:10023A0008DFF48029E493A3F85407240CC8C333D5
:10024A00C4540F4420C8834004F456800146F6DFA4
:10025A00E4800B010204081020408090047DE47EB3
:10026A00019360BCA3FF543F30E509541FFEE49399
:10027A00A360010ECF54C025E060A840B8E493A360
:10028A00FAE493A3F8E493A3C8C582C8CAC583CA8B
:10029A00F0A3C8C582C8CAC583CADFE9DEE780BE43
:01048000007B
:00000001FF
