:100041000000000000000000FF01010170898966C5
:1000510000FF080808FF0000DF00007E8181817E2B
:10006100000000000000000000000000000000008F
:10000300E4F509F50A1200E1E4F508E5082509908D
:10001300004193FD7C00AF0812009E0508E508C36C
:10002300940840E7050AE50AD3940A40DBE4F50A9D
:0E0033000509E509D3942840CFE4F50980CAF9
:1000C000EF1FAC0670011E4C600A7D027CEFDCFE67
:0400D000DDFC80ECE7
:0100D4002209
:02007100AD07D9
:10007300E4FB74807E00A803088006CEA2E713CEBB
:1000830013D8F8FFEDF582EF558224FF92B4D2B670
:0A009300C2B60BBB08DCD2B5C2B543
:01009D002240
:10009E00AA07AF05120071AF027480A8070880028C
:1000AE00C313D8FCF4F5807F017E001200C075806A
:0200BE00FF221F
:0500E100C2B6C2B52209
:030000000200D526
:0C00D500787FE4F6D8FD75810A02000374
:00000001FF
