:10015600E4FDFC7F0212008F1200F58F1CE51C6087
:10016600F77F2C7E0112017AE51CFD7C007F0212CE
:04017600008F80E492
:1001AE00EF1FAC0670011E4C600A7D027CEFDCFE78
:0401BE00DDFC80ECF8
:0101C200221A
:1000F500E4F51D20B1137F14FE1201AE30B1FD7F72
:10010500147E001201AE751D0120B0147F147E000F
:100115001201AE30B0FD7F147E001201AE751D02D6
:1001250020B2147F147E001201AE30B2FD7F147E22
:10013500001201AE751D0320B3147F147E00120159
:10014500AE30B3FD7F147E001201AE751D04AF1DE8
:010155002287
:100197001408003F0006005B004F0066006D007DFD
:0601A7000007007F006F5D
:10008F00EF14B4080050549000A475F003A4C58376
:10009F0025F0C583730200BC0200C00200C4020039
:1000AF00C80200CC0200D40200DC0200E4D2A4801B
:1000BF000ED2A48012D2A48016D2A4801AC2A4D2C7
:1000CF00A3D2A28016C2A4D2A3C2A2800EC2A4C27F
:1000DF00A3D2A28006C2A4C2A3C2A2ED25E0240827
:0600EF00F808E6F580228E
:0501C300007FE3DFFEF8
:0101C8002214
:04017A00AD07AC061B
:10017E00E4FBED25E0FFEC33FEEBC39FE49E50085D
:08018E00B2A51201C30B80EAC7
:010196002246
:03000000020003F8
:0C000300787FE4F6D8FD75811D02004AEC
:10000F00020156E493A3F8E493A34003F68001F2B0
:10001F0008DFF48029E493A3F85407240CC8C333F2
:10002F00C4540F4420C8834004F456800146F6DFC1
:10003F00E4800B0102040810204080900197E47EB9
:10004F00019360BCA3FF543F30E509541FFEE493B6
:10005F00A360010ECF54C025E060A840B8E493A37D
:10006F00FAE493A3F8E493A3C8C582C8CAC583CAA8
:10007F00F0A3C8C582C8CAC583CADFE9DEE780BE60
:0101AD000051
:00000001FF
