:10000E00F88CF8F3F95BF9B8FA15FA67FAB9FB044C
:10001E00FB4BFB90FBCFFC10FC44FC79FCACFCDCF6
:10002E00FD09FD34FD5CFD82FDA6FDC8FDE8FE0662
:10003E00FE22FE3DFE56FE6EFE85FE9AFEAEFEC111
:10004E00FED3FEE4FEF4FF030C040C0413041304AD
:10005E0015041504130811041104100410040E04E1
:05006E000E040C08FF68
:10010600120137E50990005693FFF460208F080529
:1001160009E5099375F07DA4FFAEF012014E0509BD
:10012600C28C7F057E0012014ED28C80D6C28C8096
:01013600FECA
:03000B000200D41C
:1000D400C0E0C083C082C0D075D000C006E508254A
:1000E400E0240EF582E43400F583E493FE74019376
:1000F400F58AEEF58CB2A5D006D0D0D082D083D0CC
:02010400E032E7
:10014E00EF1FAC0670011E4C600A7D027CEFDCFED8
:04015E00DDFC80EC58
:01016200227A
:10007300E4F50A20B1137F14FE12014E30B1FD7F67
:10008300147E0012014E750A0120B0147F147E0005
:1000930012014E30B0FD7F147E0012014E750A022C
:1000A30020B2147F147E0012014E30B2FD7F147E05
:1000B3000012014E750A0320B3147F147E0012014F
:1000C3004E30B3FD7F147E0012014E750A04AF0A51
:0100D300220A
:100137005389F0438901758A66758CFCC28DD28C10
:07014700D2A9D2AFC2B92218
:0300000002016397
:0C016300787FE4F6D8FD75810A020106E1
:00000001FF
