:10016B001201DEE4F51E851E1C7F0A7E001201F5CE
:10017B00051EE51EC3946440ED751E64E51ED39405
:10018B000040E0851E1C7F0A7E001201F5151E80C3
:01019B00EB78
:03000B0002019C53
:10019C00C0E0C0F0C0D0758AA4758CFF051DE51DAC
:1001AC0075F0648485F01DE51DC3951C5004D2A127
:0B01BC008002C2A1D0D0D0F0D0E03211
:1001C7001408003F0006005B004F0066006D007DCD
:0601D7000007007F006F2D
:10009A00EF14B4080050549000AF75F003A4C58360
:1000AA0025F0C583730200C70200CB0200CF02000D
:1000BA00D30200D70200DF0200E70200EFD2A480D9
:1000CA000ED2A48012D2A48016D2A4801AC2A4D2BC
:1000DA00A3D2A28016C2A4D2A3C2A2800EC2A4C274
:1000EA00A3D2A28006C2A4C2A3C2A2ED25E024081C
:1000FA00F808E6F5807F017E001201F5E4F580221A
:1001DE005389F0438901758AA4758CFFC28DD28C28
:0701EE00D2A9D2AFC2B92271
:1001F500EF1FAC0670011E4C600A7D027CEFDCFE31
:04020500DDFC80ECB0
:0102090022D2
:10010A00E4F51F20B1137F14FE1201F530B1FD7F13
:10011A00147E001201F5751F0120B0147F147E00B1
:10012A001201F530B0FD7F147E001201F5751F0231
:10013A0020B2147F147E001201F530B2FD7F147EC6
:10014A00001201F5751F0320B3147F147E001201FB
:10015A00F530B3FD7F147E001201F5751F04AF1F41
:01016A002272
:0300000002000EED
:0C000E00787FE4F6D8FD75811F020055D4
:10001A0002016BE493A3F8E493A34003F68001F290
:10002A0008DFF48029E493A3F85407240CC8C333E7
:10003A00C4540F4420C8834004F456800146F6DFB6
:10004A00E4800B01020408102040809001C7E47E7E
:10005A00019360BCA3FF543F30E509541FFEE493AB
:10006A00A360010ECF54C025E060A840B8E493A372
:10007A00FAE493A3F8E493A3C8C582C8CAC583CA9D
:10008A00F0A3C8C582C8CAC583CADFE9DEE780BE55
:0101DD000021
:00000001FF
