:0B02FA0041444A204E5443205247006C
:100105001202BA7BFF7A0279FA7D017F011202653C
:100115007F9C1200978E228F23750C03AB23AA2296
:100125007D017F021202887FDC1200978E228F23C9
:10013500750C03AB23AA227D067F021202887FACD1
:100145001200978E228F23750C03AB23AA227D0BF9
:0E0155007F021202887F0A7E001202A580B28D
:1002A500EF1FAC0670011E4C600A7D027CC7DCFEA8
:0402B500DDFC80EC00
:0102B9002222
:09030500007F027EC7DEFEDFFC72
:01030E0022CC
:1002CE00C2A5C2A68F80D2A7120305C2A70203053C
:10024100CFCDCFCECCCE1200427C007D0A1200422F
:04025100ED2430FF69
:10025500C2A5D2A68F80D2A7120305C2A7020305A5
:1002BA007F381202CE7F0C1202CE7F061202CE7F48
:0402CA00010202CE5D
:1002DE00EDBF0103148002243F4480FF1202CE22A0
:0A030F00AC031202DEAF0402025537
:060265008B088A09890ADA
:10026B001202DEE4FDAB08AA09A90A8D8275830090
:0C027B00120003FF60061202550D80E91E
:010287002254
:0C020E007F0AEA24FFFDE434FFFC7E00C0
:08021A008E0D8F0E8C0F8D106C
:100222007F017E00E4FBEBC39510E50F6480F87458
:0E0232008098500AAC0DAD0E1200300B80E823
:01024000229B
:040288008A0A8B0B48
:10028C001202DEAA0CEAD39400400D12020EAC0A44
:08029C00AD0B1202411A80EDC6
:0102A4002237
:100163001202DEC3EA64809480400B7F2B12025597
:100173008A168B17800E7F2D120255C3E49BF51749
:10018300E49AF516AA15EAD39400400D12020EACB8
:0901930016AD171202411A80EDAD
:01019C002240
:04019D008A1A8B1B14
:1001A1001202DEAA1CEAD3940040297F1012021029
:1001B100AC1AAD1BCFCDCFCECCCE120042EF540F37
:1001C100FEC3940AEE5004243080022437FF120249
:0401D100551A80D16A
:0101D5002207
:0401D6008A1F8B20D1
:1001DA001202DEAA21EAD394004028EA24FFFDE4B1
:1001EA0034FFFC7F027E0012021AAC1FAD20CFCD75
:1001FA00CFCECCCE120042EF54012430FF1202556A
:03020A001A80D285
:01020D0022CE
:02009700AD07B3
:10009900E4F508F509C2B6C2B5FB74807E00A80371
:1000A900088006CEA2E713CE13D8F8FFEDF582EF4C
:1000B900558224FF92B4D2B6C2B60BBB08DCE4FB6E
:1000C900D2B6C2B630B714E47E80A803088005CE44
:1000D900C313CE13D8F94209EE42080BBB10E1D283
:1000E900B5ED30E306E508FF7E0022E508C4F854C3
:0B00F900F0C868FEE509C4540F48FF82
:0101040022D8
:030000000202EE0B
:0C02EE00787FE4F6D8FD7581230201053D
:10000300BB010CE58229F582E5833AF583E02250B2
:1000130006E92582F8E622BBFE06E92582F8E222FC
:0D002300E58229F582E5833AF583E4932216
:10003000EF8DF0A4A8F0CF8CF0A428CE8DF0A42EE4
:02004000FE229E
:10004200BC000BBE0029EF8DF084FFADF022E4CCA2
:10005200F875F008EF2FFFEE33FEEC33FCEE9DEC6B
:10006200984005FCEE9DFE0FD5F0E9E4CEFD22EDB1
:10007200F8F5F0EE8420D21CFEADF075F008EF2FFB
:10008200FFED33FD4007985006D5F0F222C398FDEC
:050092000FD5F0EA2289
:00000001FF
