:10072F0020202D20202D20200020203A20203A208C
:02073F00200098
:1003DD001202C4E518FB3395E0FA750C027D017F1E
:1003ED00011206BCE519FB3395E0FA750C027D048C
:1003FD007F011206BCE51AFB3395E0FA750C027D00
:10040D00077F011206BCE51BFB3395E0FA750C0264
:10041D007D017F021206BCE51CFB3395E0FA750CDD
:10042D00027D047F021206BCE51DFB3395E0FA75D3
:09043D000C027D077F020206BCDF
:10000300E52AB4020B0528E52875F0068485F02857
:10001300E52A6403704874182528F806E51875F076
:100023006412020E85F018E51975F00D12020E85A3
:10003300F019E51A75F02012020E85F01AE51B750A
:10004300F01812020E85F01BE51C75F03C12020E2F
:1000530085F01CE51D75F03C12020E85F01DE52AA6
:100063006404704874182528F816E51875F06412AE
:10007300020E85F018E51975F00D12020E85F019C0
:10008300E51A75F02012020E85F01AE51B75F018BB
:1000930012020E85F01BE51C75F03C12020E85F072
:1000A3001CE51D75F03C12020E85F01DE518FB33AF
:1000B30095E0FA750C027D017F011206BCE519FB80
:1000C3003395E0FA750C027D047F011206BCE51A34
:1000D300FB3395E0FA750C027D077F011206BCE540
:1000E3001BFB3395E0FA750C027D017F021206BCFF
:1000F300E51CFB3395E0FA750C027D047F021206C2
:10010300BCE51DFB3395E0FA750C027D077F0212F7
:1001130006BCE528FB7A00750C027D0A7F02020605
:01012300BC1F
:1005520012071B1207507BFF7A07792F7D017F015B
:1005620012067B7BFF7A0779387D017F0212067BB8
:100572001201241204468F2AE52AB4010CE52970DF
:10058200047F0180027F008F29E52914600804702E
:0B059200E21203DD80DD12000380D8C0
:06074100C2A58F80D2A7C3
:080747007F027EEFDEFEDFFC05
:01074F002287
:0A075C00C2A6120741C2A702074718
:10069E00CFCDCFCECCCE12026F7C007D0A12026F70
:0406AE00ED2430FF08
:0A06B200D2A6120741C2A7020747B3
:1006F000AE07BE0104ED148006BE0209ED243F449E
:0607000080FF12075C22DD
:10071B007F3812075C7F0C12075C7F0612075C7F29
:04072B000102075C64
:0A076600AC031206F0AF040206B265
:06067B008B088A09890AC0
:100681001206F0E4FDAB08AA09A90A8D8275830060
:0C069100120230FF60061206B20D80E974
:01069D00223A
:0C0648007F0AEA24FFFDE434FFFC7E0082
:080654008E0D8F0E8C0F8D102E
:10065C007F017E00E4FBEBC39510E50F6480F8741A
:0E066C008098500AAC0DAD0E12025D0B80E8B6
:01067A00225D
:0406BC008A0A8B0B10
:1006C0001206F0AA0CEAD39400400D120648AC0AB8
:0806D000AD0B12069E1A80ED2D
:0106D80022FF
:10059D001206F0C3EA64809480400B7F2B1206B2E2
:1005AD008A168B17800E7F2D1206B2C3E49BF517AA
:1005BD00E49AF516AA15EAD39400400D120648AC3C
:0905CD0016AD1712069E1A80ED0E
:0105D6002202
:0405D7008A208B21CA
:1005DB001206F0AA22EAD3940040297F1012064A91
:1005EB00AC20AD21CFCDCFCECCCE12026FEF540FBE
:1005FB00FEC3940AEE5004243080022437FF120607
:04060B00B21A80D1CE
:01060F0022C8
:040610008A258B2686
:100614001206F0AA27EAD394004028EA24FFFDE456
:1006240034FFFC7F027E00120654AC25AD26CFCDEC
:10063400CFCECCCE12026FEF54012430FF1206B29B
:030644001A80D247
:010647002290
:0807700006181902160A320BEB
:0C075000C2B5C2B6E4FDFC7F8E0204AD11
:0604A70025F0FDEC3EFC17
:0604AD008C088D09AB076D
:1004B300D2B5E4FD74017E00A805088005C333CEE0
:1004C30033CED8F9FFEBF582EF558224FF92B4D2F5
:1004D300B6C2B60DBD08DDE4FD74017E00A80508B3
:1004E3008005C333CE33CED8F9FFE5085EFEE509B8
:1004F3005F4E24FF92B4D2B6C2B60DBD08DBC2B5BF
:0105030022D5
:02050400AD0741
:10050600E4F9430501D2B5FB74017E00A803088017
:1005160005C333CE33CED8F9FFEDF582EF558224ED
:10052600FF92B4C2B6D2B60BBB08DDE4FBD2B6C2AC
:10053600B630B40D7401A803088002C333D8FC4258
:0B054600010BBB08E8C2B5C2B4AF0156
:010551002287
:10012400E4FDFC7F8E1204ADE51875F00A8475F0C9
:1001340010A4FFAEF0E51875F00A84EF7F8C12046A
:10014400A7E51975F00A8475F010A4FFAEF0E5195F
:1001540075F00A847C00EF7F881204A7E51A75F015
:100164000A8475F010A4FFAEF0E51A75F00A847CD9
:1001740000EF25F0FDEC3EFC7F861204ADE51B7517
:10018400F00A8475F010A4FFAEF0E51B75F00A8444
:100194007C00EF25F0FDEC3EFC7F841204ADE51CF1
:1001A40075F00A8475F010A4FFAEF0E51C75F00A32
:1001B400847C00EF25F0FDEC3EFC7F821204ADE56B
:1001C4001D75F00A8475F010A4FFAEF0E51D75F0FE
:1001D4000A847C00EF25F0FDEC3EFC7F801204AD28
:1001E400E51E75F00A8475F010A4FFAEF0E51E75E7
:1001F400F00A847C00EF25F0FDEC3EFC7F8A1204BB
:0A020400AD7D807C007F8E0204AD0A
:1002C4007F8C120504EFC4540F75F00AA4FEEF549A
:1002D4000F2EF5187F88120504EFC4540F75F00A29
:1002E400A4FEEF540F2EF5197F86120504EFC454B3
:1002F4000F75F00AA4FEEF540F2EF51A7F84120531
:1003040004EFC4540F75F00AA4FEEF540F2EF51B2E
:100314007F82120504EFC4540F75F00AA4FEEF5453
:100324000F2EF51C7F80120504EFC4540F75F00ADC
:10033400A4FEEF540F2EF51D7F8A120504EFC4545A
:0C0344000F75F00AA4FEEF540F2EF51EFA
:01035000228A
:10044600E4F50820B1137F14FE12070630B1FD7FD4
:10045600147E0012070675080120B0147F147E0072
:1004660012070630B0FD7F147E00120706750802DB
:1004760020B2147F147E0012070630B2FD7F147E70
:100486000012070675080320B3147F147E001207B6
:100496000630B3FD7F147E00120706750804AF0808
:0104A6002233
:1006D9005389F0438901758A66758CFCC28DD28C69
:0706E900D2A9D2AFC2B92271
:10070600EF1FAC0670011E4C600A7D027CEFDCFE1A
:04071600DDFC80EC9A
:01071A0022BC
:03000000020351A7
:0C035100787FE4F6D8FD75812A0203983D
:10020E00C2D530F707B2D563F0FF05F030E70CB278
:10021E00D5F4048463F0FF05F080018430D502F438
:02022E000422A8
:10023000BB010CE58229F582E5833AF583E0225083
:1002400006E92582F8E622BBFE06E92582F8E222CD
:0D025000E58229F582E5833AF583E49322E7
:10025D00EF8DF0A4A8F0CF8CF0A428CE8DF0A42EB5
:02026D00FE226F
:10026F00BC000BBE0029EF8DF084FFADF022E4CC73
:10027F00F875F008EF2FFFEE33FEEC33FCEE9DEC3C
:10028F00984005FCEE9DFE0FD5F0E9E4CEFD22ED82
:10029F00F8F5F0EE8420D21CFEADF075F008EF2FCC
:1002AF00FFED33FD4007985006D5F0F222C398FDBD
:0502BF000FD5F0EA225A
:10035D00020552E493A3F8E493A34003F68001F25F
:10036D0008DFF48029E493A3F85407240CC8C333A1
:10037D00C4540F4420C8834004F456800146F6DF70
:10038D00E4800B0102040810204080900770E47E89
:10039D00019360BCA3FF543F30E509541FFEE49365
:1003AD00A360010ECF54C025E060A840B8E493A32C
:1003BD00FAE493A3F8E493A3C8C582C8CAC583CA57
:1003CD00F0A3C8C582C8CAC583CADFE9DEE780BE0F
:010778000080
:00000001FF
