:1006D10020202D20202D20200020203A20203A20EB
:0206E1002000F7
:1003EC00120272E518FB7A00750C027D017F011276
:1003FC00065EE519FB7A00750C027D047F0112067E
:10040C005EE51AFB7A00750C027D077F0112065E11
:10041C00E51BFB7A00750C027D017F0212065EE57E
:10042C001CFB7A00750C027D047F0212065EE51D32
:0D043C00FB7A00750C027D077F0202065E50
:10000300E52AB4020B0528E52875F0068485F02857
:10001300E52A6403703674182528F806E51875F088
:10002300648485F018E51975F00D8485F019531A69
:100033001FE51B75F0188485F01BE51C75F03C84E7
:1000430085F01CE51D75F03C8485F01DE52A6404EC
:10005300703674182528F816E51875F0648485F051
:1000630018E51975F00D8485F019531A1FE51B75F2
:10007300F0188485F01BE51C75F03C8485F01CE5C5
:100083001D75F03C8485F01DE518FB7A00750C02A4
:100093007D017F0112065EE519FB7A00750C027D76
:1000A300047F0112065EE51AFB7A00750C027D07D8
:1000B3007F0112065EE51BFB7A00750C027D017F52
:1000C3000212065EE51CFB7A00750C027D047F02BA
:1000D30012065EE51DFB7A00750C027D077F021296
:1000E300065EE528FB7A00750C027D0A7F02020694
:0100F3005EAE
:1004F4001206BD1206F27BFF7A0679D17D017F01D7
:1005040012061D7BFF7A0679DA7D017F0212061D31
:100514001200F412038B8F2AE52AB4010CE529702A
:10052400047F0180027F008F29E52914600804708C
:0B053400E21203EC80DD12000380D80F
:0606E300C2A58F80D2A722
:0806E9007F027EEFDEFEDFFC64
:0106F10022E6
:0A06FE00C2A61206E3C2A70206E935
:10064000CFCDCFCECCCE12021D7C007D0A12021D72
:04065000ED2430FF66
:0A065400D2A61206E3C2A70206E9CF
:10069200AE07BE0104ED148006BE0209ED243F44FC
:0606A20080FF1206FE229B
:1006BD007F381206FE7F0C1206FE7F061206FE7FA5
:0406CD00010206FE22
:0A070800AC03120692AF040206547F
:06061D008B088A09890A1E
:10062300120692E4FDAB08AA09A90A8D827583001C
:0C0633001201DEFF60061206540D80E983
:01063F002298
:0C05EA007F0AEA24FFFDE434FFFC7E00E1
:0805F6008E0D8F0E8C0F8D108D
:1005FE007F017E00E4FBEBC39510E50F6480F87479
:0E060E008098500AAC0DAD0E12020B0B80E866
:01061C0022BB
:04065E008A0A8B0B6E
:10066200120692AA0CEAD39400400D1205EAAC0AD3
:08067200AD0B1206401A80EDE9
:01067A00225D
:10053F00120692C3EA64809480400B7F2B120654FC
:10054F008A168B17800E7F2D120654C3E49BF51766
:10055F00E49AF516AA15EAD39400400D1205EAACF9
:09056F0016AD171206401A80EDCA
:010578002260
:040579008A208B2128
:10057D00120692AA22EAD3940040297F101205ECAC
:10058D00AC20AD21CFCDCFCECCCE12021DEF540F6E
:10059D00FEC3940AEE5004243080022437FF120665
:0405AD00541A80D18B
:0105B1002227
:0405B2008A258B26E5
:1005B600120692AA27EAD394004028EA24FFFDE413
:1005C60034FFFC7F027E001205F6AC25AD26CFCDAA
:1005D600CFCECCCE12021DEF54012430FF120654AA
:0305E6001A80D2A6
:0105E90022EF
:0807120006181902160A320B49
:0C06F200C2B5C2B6E4FDFC7F8E02044FCE
:0604490025F0FDEC3EFC75
:06044F008C088D09AB07CB
:10045500D2B5E4FD74017E00A805088005C333CE3E
:1004650033CED8F9FFEBF582EF558224FF92B4D253
:10047500B6C2B60DBD08DDE4FD74017E00A8050811
:100485008005C333CE33CED8F9FFE5085EFEE50916
:100495005F4E24FF92B4D2B6C2B60DBD08DBC2B51D
:0104A5002234
:0204A600AD07A0
:1004A800E4F9430501D2B5FB74017E00A803088076
:1004B80005C333CE33CED8F9FFEDF582EF5582244C
:1004C800FF92B4C2B6D2B60BBB08DDE4FBD2B6C20B
:1004D800B630B40D7401A803088002C333D8FC42B7
:0B04E800010BBB08E8C2B5C2B4AF01B5
:0104F30022E6
:1000F400E4FDFC7F8E12044FE51875F00A8475F058
:1001040010A4FFAEF0E51875F00A84EF7F8C12049A
:1001140049E51975F00A8475F010A4FFAEF0E519ED
:1001240075F00A847C00EF7F88120449E51A75F0A3
:100134000A8475F010A4FFAEF0E51A75F00A847C09
:1001440000EF25F0FDEC3EFC7F8612044FE51B75A5
:10015400F00A8475F010A4FFAEF0E51B75F00A8474
:100164007C00EF25F0FDEC3EFC7F8412044FE51C7F
:1001740075F00A8475F010A4FFAEF0E51C75F00A62
:10018400847C00EF25F0FDEC3EFC7F8212044FE5F9
:100194001D75F00A8475F010A4FFAEF0E51D75F02E
:1001A4000A847C00EF25F0FDEC3EFC7F8012044FB6
:1001B400E51E75F00A8475F010A4FFAEF0E51E7517
:1001C400F00A847C00EF25F0FDEC3EFC7F8A1204EB
:0A01D4004F7D807C007F8E02044FF7
:100272007F8C1204A6EFC4540F75F00AA4FEEF544B
:100282000F2EF5187F881204A6EFC4540F75F00ADA
:10029200A4FEEF540F2EF5197F861204A6EFC45464
:1002A2000F75F00AA4FEEF540F2EF51A7F84120484
:1002B200A6EFC4540F75F00AA4FEEF540F2EF51BDF
:1002C2007F821204A6EFC4540F75F00AA4FEEF5405
:1002D2000F2EF51C7F801204A6EFC4540F75F00A8E
:1002E200A4FEEF540F2EF51D7F8A1204A6EFC4540C
:0C02F2000F75F00AA4FEEF540F2EF51E4D
:0102FE0022DD
:10038B00E4F50820B1137F14FE1206A830B1FD7FEF
:10039B00147E001206A875080120B0147F147E008D
:1003AB001206A830B0FD7F147E001206A875080255
:1003BB0020B2147F147E001206A830B2FD7F147E8B
:1003CB00001206A875080320B3147F147E001206D2
:1003DB00A830B3FD7F147E001206A8750804AF0881
:0103EB0022EF
:10067B005389F0438901758A66758CFCC28DD28CC7
:07068B00D2A9D2AFC2B922CF
:1006A800EF1FAC0670011E4C600A7D027CEFDCFE79
:0406B800DDFC80ECF9
:0106BC00221B
:030000000202FFFA
:0C02FF00787FE4F6D8FD75812A020346E2
:1001DE00BB010CE58229F582E5833AF583E02250D6
:1001EE0006E92582F8E622BBFE06E92582F8E22220
:0D01FE00E58229F582E5833AF583E493223A
:10020B00EF8DF0A4A8F0CF8CF0A428CE8DF0A42E07
:02021B00FE22C1
:10021D00BC000BBE0029EF8DF084FFADF022E4CCC5
:10022D00F875F008EF2FFFEE33FEEC33FCEE9DEC8E
:10023D00984005FCEE9DFE0FD5F0E9E4CEFD22EDD4
:10024D00F8F5F0EE8420D21CFEADF075F008EF2F1E
:10025D00FFED33FD4007985006D5F0F222C398FD0F
:05026D000FD5F0EA22AC
:10030B000204F4E493A3F8E493A34003F68001F210
:10031B0008DFF48029E493A3F85407240CC8C333F3
:10032B00C4540F4420C8834004F456800146F6DFC2
:10033B00E4800B0102040810204080900712E47E39
:10034B00019360BCA3FF543F30E509541FFEE493B7
:10035B00A360010ECF54C025E060A840B8E493A37E
:10036B00FAE493A3F8E493A3C8C582C8CAC583CAA9
:10037B00F0A3C8C582C8CAC583CADFE9DEE780BE61
:01071A0000DE
:00000001FF
