:1000FF001408003F0006005B004F0066006D007D96
:06010F000007007F006FF5
:07008F000D0F1200960D0F8A
:10009600EF14B4080050549000AB75F003A4C58368
:1000A60025F0C583730200C30200C70200CB02001D
:1000B600CF0200D30200DB0200E30200EBD2A480F1
:1000C6000ED2A48012D2A48016D2A4801AC2A4D2C0
:1000D600A3D2A28016C2A4D2A3C2A2800EC2A4C278
:1000E600A3D2A28006C2A4C2A3C2A2ED25E0240820
:0900F600F808E6F580E4F580222B
:10011600EF1FAC0670011E4C600A7D027CEFDCFE10
:04012600DDFC80EC90
:01012A0022B2
:10012B007D017C007F0112009612008F12008F80E0
:01013B00EFD4
:03000000020003F8
:0C000300787FE4F6D8FD75811B02004AEE
:10000F0002012BE493A3F8E493A34003F68001F2DB
:10001F0008DFF48029E493A3F85407240CC8C333F2
:10002F00C4540F4420C8834004F456800146F6DFC1
:10003F00E4800B01020408102040809000FFE47E52
:10004F00019360BCA3FF543F30E509541FFEE493B6
:10005F00A360010ECF54C025E060A840B8E493A37D
:10006F00FAE493A3F8E493A3C8C582C8CAC583CAA8
:10007F00F0A3C8C582C8CAC583CADFE9DEE780BE60
:0101150000E9
:00000001FF
