:1000F5001408003F0006005B004F0066006D007DA0
:060105000007007F006FFF
:10008F00EF14B4080050549000A475F003A4C58376
:10009F0025F0C583730200BC0200C00200C4020039
:1000AF00C80200CC0200D40200DC0200E4D2A4801B
:1000BF000ED2A48012D2A48016D2A4801AC2A4D2C7
:1000CF00A3D2A28016C2A4D2A3C2A2800EC2A4C27F
:1000DF00A3D2A28006C2A4C2A3C2A2ED25E0240827
:0600EF00F808E6F580228E
:0B010C007D087C007F0412008F80FE45
:03000000020003F8
:0C000300787FE4F6D8FD75811B02004AEE
:10000F0002010CE493A3F8E493A34003F68001F2FA
:10001F0008DFF48029E493A3F85407240CC8C333F2
:10002F00C4540F4420C8834004F456800146F6DFC1
:10003F00E4800B01020408102040809000F5E47E5C
:10004F00019360BCA3FF543F30E509541FFEE493B6
:10005F00A360010ECF54C025E060A840B8E493A37D
:10006F00FAE493A3F8E493A3C8C582C8CAC583CAA8
:10007F00F0A3C8C582C8CAC583CADFE9DEE780BE60
:01010B0000F3
:00000001FF
