:04005C007F147E008F
:10006000EF1F70011E144E600A7D027CEFDCFEDD86
:03007000FC80ED24
:01007300226A
:10000300E4FB75A0FE20B12612005C30B1FD1200A6
:100013005C0BEBC3940840047F008002AF03AB0783
:100023007401A803088002C333D8FCF4F5A020B000
:10003300D412005C30B0FD12005C1BEBD394005073
:10004300047F078002AF03AB077401A80308800293
:09005300C333D8FCF4F5A080AC25
:0300000002007487
:0C007400787FE4F6D8FD758107020003D8
:00000001FF
