:100256001203E51203D612039DEF60501203E28FDC
:1002660028E528B41603E4F529E528B40C03752916
:1002760001E528B41803752902E528B45E0375293B
:10028600030529532903E5297004FF1203E8E5292C
:10029600B401057F321203E8E529B402057F4B124B
:1002A60003E8E529B403057F641203E8E529FD7C2C
:0802B600007F011201E6809EA9
:10034A001408003F0006005B004F0066006D007D48
:06035A000007007F006FA8
:1001E600EF14B4080050549001FB75F003A4C583C6
:1001F60025F0C5837302021302021702021B0202D4
:100206001F02022302022B02023302023BD2A48007
:100216000ED2A48012D2A48016D2A4801AC2A4D26E
:10022600A3D2A28016C2A4D2A3C2A2800EC2A4C226
:10023600A3D2A28006C2A4C2A3C2A2ED25E02408CE
:10024600F808E6F5807F017E00120378E4F5802247
:10037800EF1FAC0670011E4C600A7D027CEFDCFEAC
:04038800DDFC80EC2C
:01038C00224E
:1002BE00E4F52C20B1137F14FE12037830B1FD7FCC
:1002CE00147E00120378752C0120B0147F147E006A
:1002DE0012037830B0FD7F147E00120378752C0265
:1002EE0020B2147F147E0012037830B2FD7F147E8C
:1002FE0000120378752C0320B3147F147E001203B2
:10030E007830B3FD7F147E00120378752C04AF2C69
:01031E0022BC
:1003610053890F438910758BA4758DFFC28FD28E6F
:07037100D2ABD2AFC2BB22E8
:0B03B700D288C289D2A8D2AFD2B822EF
:0603D60012038D0203B7C3
:0D039D00E5236006E4F5237F01227F0022A6
:0D03AA00E5216006E4F5217F01227F00229D
:03000600AF202206
:0303E200AF1F2228
:0300030002000EEA
:10000E00C0E0C0F0C083C082C0D075D000C000C0B8
:10001E0001C002C003C004C005C006C007E51C70C5
:10002E000CFFFE1203C27F011203DC8049E51C6443
:10003E000170491203CD8E1D8F1EE4FFFE1203C206
:10004E00D3E51E94D4E51D94304010E51E94A4E52E
:10005E001D94385006751C0202013FD3E51E940A0A
:10006E00E51D94284010E51E94DAE51D942F5006E8
:10007E00752101020137751C0102013FE51C640266
:10008E00600302013F1203CD8E1D8F1EE4FFFE1290
:10009E0003C2D3E51E946CE51D9402402CE51E941C
:1000AE0054E51D94065022E522131313541F2424E5
:1000BE00F8C000E6FFE5225408FE7401A806088089
:1000CE0002C333D8FCF45F8034D3E51E94D6E51D0D
:1000DE0094064030E51E94BEE51D940A5026E52296
:1000EE00131313541F2424F8C000E6FFE52254080E
:1000FE00FE7401A806088002C333D8FC4FD000F668
:10010E0005228006752200751C01E522C39420404D
:10011E0020752200E525F4B5240FE527F4B5260950
:10012E0085242085261F752301E4FF1203DC751C30
:10013E0000D007D006D005D004D003D002D001D015
:0C014E0000D0D0D082D083D0F0D0E032BE
:10038D005389F0438901E4F58AF58CC28DC28C2224
:0B03C200AD07AC068C8CAF058F8A22C3
:0903CD00AF8CEFFEAD8AEDFF22BA
:0603DC00EF24FF928C22C9
:0303E500020361AF
:0303E8008F2A2237
:03000B0002031FCE
:10031F00C0E0C0F0C0D0758BA4758DFF052BE52B09
:10032F0075F0648485F02BE52BC3952A5004D29089
:0B033F008002C290D0D0D0F0D0E0329D
:0300000002015AA0
:0C015A00787FE4F6D8FD75812C0201A12D
:10016600020256E493A3F8E493A34003F68001F257
:1001760008DFF48029E493A3F85407240CC8C3339A
:10018600C4540F4420C8834004F456800146F6DF69
:10019600E4800B010204081020408090034AE47EAC
:1001A600019360BCA3FF543F30E509541FFEE4935E
:1001B600A360010ECF54C025E060A840B8E493A325
:1001C600FAE493A3F8E493A3C8C582C8CAC583CA50
:1001D600F0A3C8C582C8CAC583CADFE9DEE780BE08
:01036000009C
:00000001FF
