:10000E001203B512041F8F34E534B4010CE53370BE
:10001E00047F0180027F008F33E534B40207E4F5DC
:10002E0030F531F532E53464037033E531FD7C0093
:10003E00E4FF1203587F057E001203E2E530FD7CDB
:10004E00007F011203587F057E001203E2E532FDA8
:10005E007C007F021203587F057E001203E2E53416
:10006E00B40415E4FF1202AF8F317F011202AF8F7D
:10007E00307F021202AF8F32E53175F00A84FD7CBB
:10008E00007F0112040DE53175F00A84E5F0FD7C68
:10009E00007F0212040D7D0B7C007F0312040DE520
:1000AE003075F00A84FD7C007F0412040DE5307576
:1000BE00F00A84E5F0FD7C007F0512040D7D0B7CBB
:1000CE00007F0612040DE53275F00A84FD7C007F78
:1000DE000712040DE53275F00A84E5F0FD7C007F11
:0700EE000812040D020011CD
:10033100E53360220532E532C394644019E4F532B5
:100341000530E530943C400EE4F5300531E531945B
:070351003C4003E4F53122FA
:03000B000200F5FB
:1000F500C0E0C0F0C083C082C0D075D000C000C0D1
:0D01050001C002C003C004C005C006C00751
:10011200758A66758CFC052BE52B7002052AC39443
:1001220014E52A94004009752A00752B0012027604
:10013200052DE52D7002052CC39402E52C94004098
:1001420009752C00752D0012039A052FE52F7002F8
:10015200052EC3940AE52E94004009752E00752FD2
:040162000012033153
:10016600D007D006D005D004D003D002D001D000ED
:0B017600D0D0D082D083D0F0D0E03297
:1003E200EF1FAC0670011E4C600A7D027CEFDCFE42
:0403F200DDFC80ECC2
:0103F60022E4
:05041F00E4AF37F537E2
:0104240022B5
:1003CC00E4FF20B1010F20B0027F0220B2027F03B4
:0503DC0020B3027F04C4
:0103E10022F9
:100276008535361203CC8F35E536B40107E5357082
:1002860003753701E536B40207E5357003753702A5
:10029600E536B40307E5357003753703E536B40470
:0802A60007E53570037537040C
:0102AE00222D
:1002DF000909000A0A0A0A0A0A0A0A1812003F0044
:1002EF0006005B004F0066006D007D0007007F0079
:0802FF006F000000400108013E
:09040D00AE0574092FF8A60622C1
:10020D00E4F580EF14B40800505490022575F00306
:10021D00A4C58325F0C5837302023D02024102028B
:10022D004502024902024D02025502025D020265BB
:10023D00D2A4800ED2A48012D2A48016D2A4801A89
:10024D00C2A4D2A3D2A28016C2A4D2A3C2A2800EEF
:10025D00C2A4C2A3D2A28006C2A4C2A3C2A2ED258B
:09026D00E02412F808E6F58022F5
:10039A0074092508F8E6FD7C00AF0812020D05086D
:0A03AA00E508C3940940037508013B
:0103B4002226
:1003B5005389F0438901758A66758CFCC28DD28C90
:0703C500D2A9D2AFC2B92298
:100358008F388C398D3A1204167FA01203081203C5
:10036800F7AF381203081203F7AF3A120308120363
:04037800F702000385
:0202AF008F3886
:1002B1001204167FA01203081203F7AF38120308C5
:1002C1001203F71204167FA11203081203F7120397
:0D02D1007C8F397F01120403120003AF3946
:0102DE0022FD
:09041600D2A0D2A1C2A0C2A12211
:07000300C2A0D2A1D2A0228D
:02030800AD073F
:10030A00E4FB74807E00A803088006CEA2E713CE21
:10031A0013D8F8FFEDF582EF558224FF92A0D2A1FF
:06032A00C2A10BBB08DCC0
:0103300022AA
:10037C00E4FFD2A0FED2A130A00D7480A8060880A4
:0D038C0002C313D8FC4207C2A10EBE08E850
:010399002241
:0A040300EF24FF92A0D2A1C2A122B3
:0B03F700D2A0D2A1A2A0E433FFC2A15B
:0104020022D7
:0300000002018179
:0C018100787FE4F6D8FD75813A0201C8D1
:10018D0002000EE493A3F8E493A34003F68001F27A
:10019D0008DFF48029E493A3F85407240CC8C33373
:1001AD00C4540F4420C8834004F456800146F6DF42
:1001BD00E4800B01020408102040809002DFE47EF1
:1001CD00019360BCA3FF543F30E509541FFEE49337
:1001DD00A360010ECF54C025E060A840B8E493A3FE
:1001ED00FAE493A3F8E493A3C8C582C8CAC583CA29
:1001FD00F0A3C8C582C8CAC583CADFE9DEE780BEE1
:0103070000F5
:00000001FF
