:04030D005643430010
:1001E4001202BE1202E17BFF7A03790D7D017F01C9
:1001F40012024A7D037C007F801200977F811200E7
:10020400EE8F22EFFB7A00750C037D017F02120250
:030214008B80E9F3
:0602D200C2A58F80D2A737
:0802D8007F027EEFDEFEDFFC79
:0102E00022FB
:0A02F900C2A61202D2C2A70202D868
:10026D00CFCDCFCECCCE1200427C007D0A12004203
:04027D00ED2430FF3D
:0A028100D2A61202D2C2A70202D8D0
:1002A800AE07BE0104ED148006BE0209ED243F44EA
:0602B80080FF1202F92292
:1002BE007F381202F97F0C1202F97F061202F97FC3
:0402CE00010202F92E
:0A030300AC031202A8AF040202814D
:06024A008B088A09890AF5
:100250001202A8E4FDAB08AA09A90A8D82758300E1
:0C026000120003FF60061202810D80E90D
:01026C00226F
:0C0217007F0AEA24FFFDE434FFFC7E00B7
:080223008E0D8F0E8C0F8D1063
:10022B007F017E00E4FBEBC39510E50F6480F8744F
:0E023B008098500AAC0DAD0E1200300B80E81A
:010249002292
:04028B008A0A8B0B45
:10028F001202A8AA0CEAD39400400D120217AC0A6E
:08029F00AD0B12026D1A80ED97
:0102A7002234
:100139001202A8C3EA64809480400B7F2B120281CB
:100149008A168B17800E7F2D120281C3E49BF51747
:10015900E49AF516AA15EAD39400400D120217ACD9
:0901690016AD1712026D1A80EDAB
:01017200226A
:040173008A1A8B1B3E
:100177001202A8AA1CEAD3940040297F1012021980
:10018700AC1AAD1BCFCDCFCECCCE120042EF540F61
:10019700FEC3940AEE5004243080022437FF120273
:0401A700811A80D168
:0101AB002231
:0401AC008A1F8B20FB
:1001B0001202A8AA21EAD394004028EA24FFFDE411
:1001C00034FFFC7F027E00120223AC1FAD20CFCD96
:1001D000CFCECCCE120042EF54012430FF12028168
:0301E0001A80D2B0
:0101E30022F9
:0C02E100C2B5C2B6E4FDFC7F8E0200979F
:060097008C088D09AB0787
:10009D00D2B5E4FD74017E00A805088005C333CEFA
:1000AD0033CED8F9FFEBF582EF558224FF92B4D20F
:1000BD00B6C2B60DBD08DDE4FD74017E00A80508CD
:1000CD008005C333CE33CED8F9FFE5085EFEE509D2
:1000DD005F4E24FF92B4D2B6C2B60DBD08DBC2B5D9
:0100ED0022F0
:0200EE00A90760
:1000F000E4FDD2B5FB74017E00A803088005C3337C
:10010000CE33CED8F9FFE9F582EF558224FF92B4C1
:10011000C2B6D2B60BBB08DDE4FBD2B6C2B630B471
:100120000D7401A803088002C333D8FC42050BBB41
:0801300008E8C2B5C2B4AF0536
:0101380022A4
:030000000202ED0C
:0C02ED00787FE4F6D8FD7581220201E460
:10000300BB010CE58229F582E5833AF583E02250B2
:1000130006E92582F8E622BBFE06E92582F8E222FC
:0D002300E58229F582E5833AF583E4932216
:10003000EF8DF0A4A8F0CF8CF0A428CE8DF0A42EE4
:02004000FE229E
:10004200BC000BBE0029EF8DF084FFADF022E4CCA2
:10005200F875F008EF2FFFEE33FEEC33FCEE9DEC6B
:10006200984005FCEE9DFE0FD5F0E9E4CEFD22EDB1
:10007200F8F5F0EE8420D21CFEADF075F008EF2FFB
:10008200FFED33FD4007985006D5F0F222C398FDEC
:050092000FD5F0EA2289
:00000001FF
