:0604C70068656C6C6F001B
:0604C000012B00012A00DF
:1002720012042F7BFF7A0479C77D017F011203DA12
:100282001204D3120473EF7006120480EF60F412AA
:1002920004D98F2B1204DC8F2AE52BFB7A00751808
:1002A200027D017F02120312E52AFB7A0075180211
:1002B2007D057F02120312E52AB415021529E52AEB
:1002C200B409020529E529FB7A007518037D0A7F26
:0602D200021203FD80ADE5
:10041A00EF1FAC0670011E4C600A7D027CC7DCFE31
:04042A00DDFC80EC89
:01042E0022AB
:0904A300007F027EC7DEFEDFFCD3
:0104AC00222D
:10044300C2A5C2A68F80D2A71204A3C2A70204A387
:1003B600CFCDCFCECCCE1201917C007D0A12019119
:0403C600ED2430FFF3
:1003CA00C2A5D2A68F80D2A71204A3C2A70204A3F1
:10042F007F381204437F0C1204437F061204437F6C
:04043F00010204436F
:10045300EDBF0103148002243F4480FF12044322B2
:0A04AD00AC03120453AF040203CAAB
:0603DA008B148A15891640
:1003E000120453E4FDAB14AA15A9168D827583007F
:0C03F000120152FF60061203CA0D80E9E2
:0103FC0022DE
:0C0383007F0AEA24FFFDE434FFFC7E004A
:08038F008E198F1A8C1B8D1CC6
:100397007F017E00E4FBEBC3951CE51B6480F874CA
:0E03A7008098500AAC19AD1A12017F0B80E845
:0103B5002225
:0403FD008A168B17BA
:10040100120453AA18EAD39400400D120383AC16C8
:08041100AD171203B61A80EDCD
:0104190022C0
:1002D800120453C3EA64809480400B7F2B1203CA34
:1002E8008A228B23800E7F2D1203CAC3E49BF52339
:1002F800E49AF522AA21EAD39400400D120383ACB4
:0903080022AD231203B61A80EDA8
:0103110022C9
:040312008A168B17A5
:10031600120453AA18EAD3940040297F10120385C9
:10032600AC16AD17CFCDCFCECCCE120191EF540F78
:10033600FEC3940AEE5004243080022437FF1203D1
:04034600CA1A80D17E
:01034A002290
:04034B008A268B274C
:10034F00120453AA28EAD394004028EA24FFFDE4BC
:10035F0034FFFC7F027E0012038FAC26AD27CFCD7A
:10036F00CFCECCCE120191EF54012430FF1203CA2D
:03037F001A80D20F
:010382002258
:0B048D00D288C289D2A8D2AFD2B82218
:100463005389F0438901E4F58AF58CC28DC28C224D
:0B049800AD07AC068C8CAF058F8A22EC
:0904B700AF8CEFFEAD8AEDFF22CF
:0604CD00EF24FF928C22D7
:0604D30012046302048D17
:0D047300E50F6006E4F50F7F01227F0022F7
:0D048000E50D6006E4F50D7F01227F0022EE
:0304D900AF0C2243
:0304DC00AF0B2241
:03000300020006F2
:10000600C0E0C0F0C083C082C0D075D000C000C0C0
:1000160001C002C003C004C005C006C007E50870E1
:100026000CFFFE1204987F011204CD8049E5086496
:100036000170491204B78E098F0AE4FFFE12049874
:10004600D3E50A94D4E50994304010E50A94A4E572
:100056000994385006750802020137D3E50A940A56
:10006600E50994284010E50A94DAE509942F50062C
:10007600750D0102012F750801020137E5086402BA
:1000860060030201371204B78E098F0AE4FFFE12DD
:100096000498D3E50A946CE5099402402CE50A9489
:1000A60054E50994065022E50E131313541F241029
:1000B600F8C000E6FFE50E5408FE7401A8060880A5
:1000C60002C333D8FCF45F8034D3E50A94D6E5093D
:1000D60094064030E50A94BEE509940A5026E50EDA
:1000E600131313541F2410F8C000E6FFE50E54083E
:1000F600FE7401A806088002C333D8FC4FD000F670
:10010600050E8006750E00750801E50EC3942040A5
:1001160020750E00E511F4B5100FE513F4B51209BC
:1001260085100C85120B750F01E4FF1204CD7508BE
:1001360000D007D006D005D004D003D002D001D01D
:0C01460000D0D0D082D083D0F0D0E032C6
:030000000201E614
:0C01E600787FE4F6D8FD75812B02022D15
:10015200BB010CE58229F582E5833AF583E0225062
:1001620006E92582F8E622BBFE06E92582F8E222AC
:0D017200E58229F582E5833AF583E49322C6
:10017F00EF8DF0A4A8F0CF8CF0A428CE8DF0A42E94
:02018F00FE224E
:10019100BC000BBE0029EF8DF084FFADF022E4CC52
:1001A100F875F008EF2FFFEE33FEEC33FCEE9DEC1B
:1001B100984005FCEE9DFE0FD5F0E9E4CEFD22ED61
:1001C100F8F5F0EE8420D21CFEADF075F008EF2FAB
:1001D100FFED33FD4007985006D5F0F222C398FD9C
:0501E1000FD5F0EA2239
:1001F200020272E493A3F8E493A34003F68001F2AF
:1002020008DFF48029E493A3F85407240CC8C3330D
:10021200C4540F4420C8834004F456800146F6DFDC
:10022200E4800B01020408102040809004C0E47EA8
:10023200019360BCA3FF543F30E509541FFEE493D1
:10024200A360010ECF54C025E060A840B8E493A398
:10025200FAE493A3F8E493A3C8C582C8CAC583CAC3
:10026200F0A3C8C582C8CAC583CADFE9DEE780BE7B
:0104C6000035
:00000001FF
