:1002630045410077656C636F6D6520746F2063682B
:04027300696E61004F
:100097001202777B417D017F011202C17BFF7A0249
:1000A70079637D037F0112020E750C027B427A0091
:1000B7007D097F01120231750C027BA87AFF7D0C46
:1000C7007F0112010C750C027BA57A007D017F026E
:1000D700120146750C087BA57A007D047F02120188
:1000E7007F7BE07D0D7F021202C17BFF7A0279667A
:1000F7007D107F0112020E7F1812028B7FF47E01A2
:0501070012024E80F21F
:0902B700007F027EC7DEFEDFFCC1
:0102C000221B
:10028B00C2A5C2A68F80D2A71202B7C2A70202B71D
:1001EA00CFCDCFCECCCE1200427C007D0A12004287
:0401FA00ED2430FFC1
:1001FE00C2A5D2A68F80D2A71202B7C2A70202B79B
:100277007F3812028B7F0C12028B7F0612028B7F54
:040287000102028BE3
:10029B00EDBF0103148002243F4480FF12028B2226
:0A02C100AC0312029BAF040201FE21
:06020E008B088A09890A31
:1002140012029BE4FDAB08AA09A90A8D827583002A
:0C022400120003FF60061201FE0D80E9CD
:0102300022AB
:0C01B7007F0AEA24FFFDE434FFFC7E0018
:0801C3008E0F8F108C118D12BC
:1001CB007F017E00E4FBEBC39512E5116480F874AC
:0E01DB008098500AAC0FAD101200300B80E877
:0101E90022F3
:040231008A0A8B0B9F
:1002350012029BAA0CEAD39400400D1201B7AC0A36
:08024500AD0B1201EA1A80ED75
:01024D00228E
:10010C0012029BC3EA64809480400B7F2B1201FE89
:10011C008A0D8B0E800E7F2D1201FEC3E49BF50E13
:10012C00E49AF50DAA0CEAD39400400D1201B7AC79
:09013C000DAD0E1201EA1A80ED6E
:010145002297
:040146008A0A8B0B8B
:10014A0012029BAA0CEAD3940040297F101201B92B
:10015A00AC0AAD0BCFCDCFCECCCE120042EF540FAE
:10016A00FEC3940AEE5004243080022437FF1201A1
:04017A00FE1A80D118
:01017E00225E
:04017F008A0A8B0B52
:1001830012029BAA0CEAD394004028EA24FFFDE460
:1001930034FFFC7F027E001201C3AC0AAD0BCFCD4E
:1001A300CFCECCCE120042EF54012430FF1201FE19
:0301B3001A80D2DD
:0101B6002226
:10024E00EF1FAC0670011E4C600A7D027CEFDCFED7
:04025E00DDFC80EC57
:010262002279
:030000000202AB4E
:0C02AB00787FE4F6D8FD75811202009700
:10000300BB010CE58229F582E5833AF583E02250B2
:1000130006E92582F8E622BBFE06E92582F8E222FC
:0D002300E58229F582E5833AF583E4932216
:10003000EF8DF0A4A8F0CF8CF0A428CE8DF0A42EE4
:02004000FE229E
:10004200BC000BBE0029EF8DF084FFADF022E4CCA2
:10005200F875F008EF2FFFEE33FEEC33FCEE9DEC6B
:10006200984005FCEE9DFE0FD5F0E9E4CEFD22EDB1
:10007200F8F5F0EE8420D21CFEADF075F008EF2FFB
:10008200FFED33FD4007985006D5F0F222C398FDEC
:050092000FD5F0EA2289
:00000001FF
